S02700006275696C642F73746D3332633037312F73746D3332633037312D626C696E6B2E73726563EA
S3150800000000300020A9000008B5000008B500000867
S3150800001080B500AF00F00AF800F028F8024B180087
S3150800002000F032F8C046F7E720A1070080B500AF18
S315080000300C4B1A680B4B01210A431A60A023DB05F7
S315080000401A68A023DB0508490A401A60A023DB05C5
S315080000501A68A023DB058021C9000A431A60C04636
S31508000060BD4680BD34100240FFF3FFFF80B500AFE8
S31508000070044B1A68034B20214A401A60C046BD4605
S3150800008080BDC0461400005080B582B000AF7860CD
S3150800009000E0C0467B685A1E7A60002BF9D1C0463C
S315080000A0C046BD4602B080BD80B500AFFFF7B0FFC1
S311080000B0C046FDE780B500AFC046FDE77E
S705080000A949
